:040000000BEF00F012
:100008004E82FACF40F0FBCF41F0B4ED06F0B9EFE5
:0200180007F0EF
:1008000000C6084C088008090809024300020100DC
:10081000C032090400000102020100052400100199
:100820000424020205240600010524010001070535
:10083000810308000209040100020A000000070504
:1008400002024000000705820240000034034D0010
:100850006900630072006F00630068006900700047
:10086000200054006500630068006E006F006C009B
:100870006F0067007900200049006E0063002E00C1
:1008800034034300440043002000520053002D0075
:10089000320033003200200045006D0075006C000E
:1008A0006100740069006F006E0020004400650064
:1008B0006D006F001201000202000008D8040A0057
:0B08C000000101020001040309040014
:1008CC000F0EC16E070EB46E000E926E000E936E7C
:1008DC00800E946E000E956E000E966E000ECA6E13
:1008EC00000ECC6E7D0ECB6E7D0ECA6E9D82F28C90
:1008FC00F28E900EAB6E080EB86E000EB06EAC940D
:10090C00810EAF6E000E2CEC08F005EC06F095ECA9
:10091C0008F090C1D6F091C1D7F00001D86BD96B1B
:10092C00A8C1DAF0A9C1DBF00001DC6BDD6B98C16A
:10093C00DEF099C1DFF00001E06BE16B82C1E2F007
:10094C0083C1E3F00001E46BE56B0101845102010A
:10095C00436F010185510201446F0201456B020195
:10096C00466B000E020143110001E66F000E0201FE
:10097C0044110001E76F010E020145110001E86FFF
:10098C00000E020146110001E96F9CC1EAF09DC105
:10099C00EBF00001EC6BED6B8AC1EEF08BC1EFF06C
:1009AC000001F06BF16BA8C1F2F0A9C1F3F00001EA
:1009BC00F46BF56B42C1F6F043C1F7F00001F86B34
:1009CC00F96BD3EC08F00201496F020149510201A5
:1009DC00D8B4F7D702014951DFEC08F0000E020140
:1009EC00496FEFD79EAAFED79E9AAECF4AF202016C
:1009FC004A51070B070AD8A4F5D74AC243F20201A1
:100A0C00D89043330201D89043330201D89043333A
:100A1C001F0E02014317020143510201476F486B3D
:100A2C009EAAFED79E9AAECF4AF2C2D002014A517C
:100A3C00020D000EF324D96E010EF420DA6EDECF17
:100A4C0043F2DDCF44F243C2D6F044C2D7F00001EA
:100A5C00D86BD96BC7D702014A51020D000EF32493
:100A6C00D96E010EF420DA6EDECF43F2DDCF44F204
:100A7C0043C2DAF044C2DBF00001DC6BDD6BB2D7B1
:100A8C0002014A51020D000EF324D96E010EF4201E
:100A9C00DA6EDECF43F2DDCF44F243C2DEF044C265
:100AAC00DFF00001E06BE16B9DD702014A51020DB2
:100ABC00000EF324D96E010EF420DA6EDECF43F271
:100ACC00DDCF44F243C2E2F044C2E3F00001E46B38
:100ADC00E56B88D702014A51020D000EF324D96E42
:100AEC00010EF420DA6EDECF43F2DDCF44F243C2C6
:100AFC00E6F044C2E7F00001E86BE96B73D7020142
:100B0C004A51020D000EF324D96E010EF420DA6E58
:100B1C00DECF43F2DDCF44F243C2EAF044C2EBF045
:100B2C000001EC6BED6B5ED702014A51020D000E19
:100B3C00F324D96E010EF420DA6EDECF43F2DDCF52
:100B4C0044F243C2EEF044C2EFF00001F06BF16BE3
:100B5C0049D702014A51020D000EF324D96E010E41
:100B6C00F420DA6EDECF43F2DDCF44F243C2F2F072
:100B7C0044C2F3F00001F46BF56B34D702014A5117
:100B8C00020D000EF324D96E010EF420DA6EDECFC6
:100B9C0043F2DDCF44F243C2F6F044C2F7F004D086
:100BAC008AC1F6F08BC1F7F00001F86BF96B1AD71C
:100BBC0047C243F248C244F202014451000AD8A48D
:100BCC00EFD702014351070AD8B430D70F0AD8B473
:100BDC0042D7010AD8B454D7030AD8B466D7010A4D
:100BEC00D8B478D7070AD8B48AD7010AD8B49CD716
:100BFC00030AD8B4AED7010AD8B4C0D7D1D7A09ABB
:100C0C00000E6A6E000E686E000E706E710E0001A2
:100C1C00FA6F0F0E0001FB6F000E0001FD6F000E4E
:100C2C00FC6F000E0001FF6F020EFE6F7BEC08F0F4
:100C3C00160E6F6E9F0E6B6E7B0E696E000E0201B0
:100C4C00426F0B0E0201426501D010D002014251DD
:100C5C00040D000EF324D96E040EF420DA6EDE6A55
:100C6C00DE6ADE6ADD6A0201422BEBD76D8C000E68
:100C7C006E6E6D986D9C6896000E0C6E000E046E78
:100C8C00000E066E000E056E68B6F5D7010E286EC6
:100C9C00010E296E000E246E000E256E000E236EC2
:100CAC00000E0201426F020E0201426501D033D0E8
:100CBC0002014251020D0F0EF324D96E000EF420E6
:100CCC00DA6E000EDE6E000EDD6E02014251020D78
:100CDC00600EF324D96E000EF420DA6E000EDE6E78
:100CEC00000EDD6E02014251010D150EF324D96E7A
:100CFC00000EF420DA6E000EDF6E02014251010D7F
:100D0C00180EF324D96E000EF420DA6E000EDF6E8E
:100D1C000201422BC8D7080E0F6E040E106E160E71
:100D2C00706E040E0401036F300E026F080E040186
:100D3C00016F040E0401006F0401008F000E336E6E
:100D4C00000E00016A6F000E6B6F000E6C6F000ED0
:100D5C006D6F000E2B6E000E276E12000600E9CF91
:100D6C0042F0EACF43F0E1CF44F0E2CF45F0D9CFE7
:100D7C0046F0DACF47F0F3CF48F0F4CF49F0F6CF96
:100D8C004AF0F7CF4BF0F8CF4CF0F5CF4DF09EA2D8
:100D9C004CD09E92000E356E000E366E000E376EE5
:100DAC00000E386E5FEC08F0D4C03DF0010E3E6EC4
:100DBC00000E3F6E3D2A03D0D8903E363F363D2E76
:100DCC00FBD73EC035F03FC036F0ADEC08F0D60E88
:100DDC003D6E000E3E6ED8900001D435D96E0001E8
:100DEC00D535DA6ED890D936DA363D50D9263E5004
:100DFC00DA22DECF35F0DECF36F0DECF37F0DECFC5
:100E0C0038F05FEC08F0010E0001D425356E000EB1
:100E1C000001D521366E000E386E090E376EF4ECDB
:100E2C0007F035C0D4F036C0D5F04DC0F5FF4CC03E
:100E3C00F8FF4BC0F7FF4AC0F6FF49C0F4FF48C0AB
:100E4C00F3FF47C0DAFF46C0D9FF45C0E2FF44C0FC
:100E5C00E1FF43C0EAFF42C0E9FF41C0FBFF40C0D5
:100E6C00FAFF4E921100000000000000000000008C
:100E7C000000000000000000000000000000000066
:100E8C000000000000000000000000000000000056
:100E9C000000000000000000000000000000000046
:100EAC00000000000000000012188008000033CC85
:100EBC00A97B3BB480000090002400FF004B000095
:100ECC00000300000030FF00004877033F038C0351
:100EDC00BB03FB038F00FF03BF0300000000009067
:100EEC003003002413100000CF03F391F3007C03B4
:100EFC00F303C303FB02CC0333481348C091F00047
:100F0C00CC14CC84FF00C703FF80C783BB0303480A
:100F1C00FC00C030CCA000B400543330D1000084AD
:100F2C002E000300300000ABC0347B0B0317000015
:100F3C0000000000FFFF0100020004000800200078
:100F4C0010004000800000080010000200800040EB
:100F5C00002000200004000800180019009900D996
:100F6C0000F900FB00FF720EF66E0E0EF76E000E0F
:100F7C00F86E01EE00F011EE00F00900F5CFEEFF77
:100F8C00E550E150FAE1E250F8E1820EF66E110EF6
:100F9C00F76E000EF86E00EED6F010EE24F009009D
:100FAC00F5CFEEFFE550E150FAE102EE00F0400E15
:100FBC00EE6AE806FDE100EE60F0760EEE6AE806F9
:100FCC00FDE100EE01F0340EEE6AE806FDE14E9014
:100FDC004E92000EF86E000166EF04F0000E3A6EB1
:100FEC0036AE06D0356C361ED8B0362A010E3A6EA7
:100FFC0038AE04D0376C381ED8B0382A3750381079
:10100C00D8B418D0010E396E04D0D8903736383693
:10101C00392A38AEFAD73750355C38503658D8A004
:10102C0004D03750355E3850365AD8903832373273
:10103C00392EF1D73A50D8B404D0356C361ED8B00E
:10104C00362A35C035F036C036F012000001FA6F82
:10105C0024D0020E0001FC6F580EFB6F0001FB0741
:10106C00D8A0FC070001FB29F9E10001FC29D8B448
:10107C001200F4D7700ED36E030E0001FE6F200E1B
:10108C00FD6F0001FD07D8A0FE070001FD29F9E165
:10109C000001FE29D8B41200F4D70001FA51000A5D
:1010AC00D8B4D7D7010AD8B41200030AD8A41200B6
:1010BC00E1D735C039F036C03AF037C03BF038C014
:1010CC003CF0391E3A1E3B1E3C1E39C035F03AC06E
:1010DC0036F03BC037F03CC038F03750010B826E15
:1010EC0036C083FF35C081FF1200FAC040F2FBC04E
:1010FC0041F209D040C2D9FF41C2DAFFFCC0DFFF88
:10110C000201404B412B0001FE07D8A0FF07000154
:10111C00FE29F0E10001FF29D8B41200EBD72750CB
:10112C00D8A41200000E6D6E000E696E160E6F6E56
:10113C009F0E6B6E7B0E696ED08EA28AA08AF28E89
:10114C0001D06D866DA6FDD7010E276E120035C03D
:10115C0037F036C038F0D89038323732D890383231
:10116C003732D8903832373237503F0B806E35508B
:10117C00070B846E120000FF000000FF000000FF50
:10118C00000000FF000000FF000000FF000000FF57
:10119C00000000FF000000FF0000ABA205D0AB98E0
:1011AC00AECFFAF0AB8802D0AECFFAF00001FA5114
:0C11BC0012000001FA6FFAC0ADFF120033
:020000040020DA
:08000000FFFFFFFFFFFFFFFF00
:020000040030CA
:0E000000000C1F1FFF8381FF0FC00FE00F4099
:00000001FF
