:040000000BEF00F012
:100008004082FACF30F0FBCF31F03DED01F0F6EF52
:1000180001F00F0EC16E070EB46E000E926E000E48
:10002800936E800E946E000E956E000E966E000E06
:10003800CA6E000ECC6E7D0ECB6E7D0ECA6E9D8292
:10004800F28CF28E900EAB6E080EB86E000EB06E8B
:10005800AC94810EAF6E9EAAFED79E9AAECF72F078
:1000680000017251E00BE00AD8A4F5D772C060F025
:100078000F0E00016017000160510001706F716B75
:1000880072C060F00001603B0F0E6017010E0001A6
:1000980060170001605100016C6F6D6B6E6B6F6BC8
:1000A8009EAAFED79E9AAECF72F0000171BF08D00B
:1000B80000017151D0E1090E0001705DD8B0CBD7B5
:1000C8007F0E0001726502D00001721F6CC060F0E3
:1000D8006DC061F06EC062F06FC063F061C063F024
:1000E80060C062F00001616B606B00017251020D2B
:1000F800730EF324D96E000EF420DA6EDECF64F0AE
:10010800DDCF65F000016451000160110001666FE8
:1001180000016551000161110001676F000E0001C7
:1001280062110001686F000E000163110001696F20
:10013800010E00016A6F000E00016B6FD89000017C
:100148007035D96E00017135DA6ED890D936DA3645
:1001580000016A51D92600016B51DA2266C0DEFF20
:1001680067C0DEFF68C0DEFF69C0DEFF74D700002D
:100178000000000000000000000000000000000077
:100188000000000000000000000000000000000067
:100198000000000000000000000000000000000057
:1001A8000000000000000000000000000000000047
:1001B80012188008000033CCA97B3BB48000009063
:1001C800002400FF004B0000000300000030FF0087
:1001D800004877033F038C03BB03FB038F00FF0337
:1001E800BF0300000000009030030024131000003B
:1001F800CF03F391F3007C03F303C303FB02CC03A7
:1002080033481348C091F000CC14CC84FF00C703D6
:10021800FF80C783BB030348FC00C030CCA000B4F8
:1002280000543330D10000842E000300300000ABAE
:10023800C0347B0B0357000000000000FFFF0100E3
:1002480002000400080020001000400080000008A0
:100258000010000200800040002000010004000897
:100268000018001A009A00DA00FA00FB00FF0000EC
:1002780000000600E9CF32F0EACF33F0E1CF34F0E6
:10028800E2CF35F0D9CF36F0DACF37F0F3CF38F008
:10029800F4CF39F0F6CF3AF0F7CF3BF0F8CF3CF097
:1002A800F5CF3DF09EA248D09E92000E256E000E1E
:1002B800266E000E276E000E286E1FEC02F03EC060
:1002C8002DF0010E2E6E000E2F6E2D2A03D0D89021
:1002D8002E362F362D2EFBD72EC025F02FC026F018
:1002E8003BEC02F0010E2D6E000E2E6ED8903E34BF
:1002F800D96E3F34DA6ED890D936DA362D50D926F1
:100308002E50DA22DECF25F0DECF26F0DECF27F022
:10031800DECF28F01FEC02F0010E3E24256E000E01
:100328003F20266E000E286E090E276EBEEC01F0E7
:1003380025C03EF026C03FF03DC0F5FF3CC0F8FFA9
:100348003BC0F7FF3AC0F6FF39C0F4FF38C0F3FFEF
:1003580037C0DAFF36C0D9FF35C0E2FF34C0E1FF4D
:1003680033C0EAFF32C0E9FF31C0FBFF30C0FAFFFB
:1003780040921100000E2A6E26AE06D0256C261E6D
:10038800D8B0262A010E2A6E28AE04D0276C281E63
:10039800D8B0282A27502810D8B418D0010E296EB2
:1003A80004D0D89027362836292A28AEFAD72750DD
:1003B800255C28502658D8A004D02750255E285000
:1003C800265AD89028322732292EF1D72A50D8B465
:1003D80004D0256C261ED8B0262A25C025F026C0B4
:1003E80026F01200760EF66E010EF76E000EF86E0D
:1003F80000EE73F011EE04F00900F5CFEEFFE550C2
:10040800E150FAE1E250F8E19E0EF66E040EF76E46
:10041800000EF86E00EE01F010EE24F00900F5CFA2
:10042800EEFFE550E150FAE13F6A3E6A40904092A3
:1004380000010DEF00F025C029F026C02AF027C0E2
:100448002BF028C02CF0291E2A1E2B1E2C1E29C07A
:1004580025F02AC026F02BC027F02CC028F0275002
:10046800010B826E26C083FF25C081FF120025C0C4
:1004780027F026C028F0D89028322732D890283282
:100488002732D8902832273227503F0B806E2550CC
:10049800070B846E120000FF000000FF000000FF41
:1004A800000000FF000000FF000000FF000000FF48
:0A04B800000000FF000000FF00003C
:020000040020DA
:08000000FFFFFFFFFFFFFFFF00
:020000040030CA
:0E000000000C1F1EFF8381FF0FC00FE00F409A
:00000001FF
