:0400000007EF00F016
:10000800548250ED02F0EFEF02F001C003F0010E50
:10001800046E000E056E032A03D0D8900436053608
:10002800032EFBD704C03BF005C03CF0600E036E06
:10003800000E046ED8900134D96E0234DA6ED8906E
:10004800D936DA360350D9260450DA22DECF05F045
:10005800DECF06F0DECF07F0DECF08F006C005F0F1
:1000680007C006F008C007F0086A000E0514096EFC
:10007800030E06140A6E000E07140B6E000E081409
:100088000C6E53500F0B0D6E0E6A0A0ED8900D367B
:100098000E36E82EFBD70DC00FF00EC010F0000E84
:1000A80010BEFF0E116E126E030E3B14136E000E7F
:1000B8003C14146E0E0ED89013361436E82EFBD767
:1000C800600E156E000E166ED8900134D96E02348B
:1000D800DA6ED890D936DA361550D9261650DA2283
:1000E800000EDE14176EFF0EDE14186E000EDE14FE
:1000F800196E000EDE141A6E19C01AF018C019F025
:1001080017C018F0176A600E1B6E000E1C6ED89090
:100118000134D96E0234DA6ED890D936DA361B50EB
:10012800D9261C50DA22DECF1DF0DECF1EF0DECF3E
:100138001FF0DECF20F0FF0E1D14216E000E1E14DE
:10014800226E000E1F14236E000E2014246E21C090
:1001580024F0236A226A216A17502110256E18504C
:100168002210266E19502310276E1A502410286E5C
:1001780013502510296E145026102A6E000E2710D1
:100188002B6E000E28102C6E0F5029102D6E10505B
:100198002A102E6E11502B102F6E12502C10306E0C
:1001A80009502D10316E0A502E10326E0B502F1040
:1001B800336E0C503010346E3BC035F03CC036F016
:1001C800D89036323532D8903632353235503110F3
:1001D800376E3250386E3350396E34503A6E000EE6
:1001E8003E6E000E3D6E3EBE03D03E5030E12BD039
:1001F8003D5037C003F038C004F039C005F03AC0AC
:1002080006F0E82A05D0D8900632053204320332C7
:10021800E82EF9D7010E0316034603468A50031841
:10022800FB0B03188A6E8A86100EE82EFED700D0C4
:100238008A96100EE82EFED700D03D4A3E2A3EBED2
:10024800D7D73E5004E1200E3D5CD8A0D1D78A888C
:10025800100EE82EFED700D08A98100EE82EFED792
:1002680000D012000F0EC16E070EB46E000E926E13
:10027800000E936E800E946E000E956E000E966EB4
:100288008B908B828B948998899A000ECA6E000E87
:10029800CC6E7D0ECB6E7D0ECA6E9D82F28CF28E78
:1002A800900EAB6E080EB86E000EB06EAC94810E58
:1002B800AF6EF30E536E9EAAFED79E9AAECF96F0FF
:1002C80000019651E00BE00AD8A4F5D796C084F057
:1002D8000F0E84178451946F956B96C084F0843BFD
:1002E8000F0E8417010E84178451906F916B926BD7
:1002F800936B9EAAFED79E9AAECF96F0000195BF4B
:1003080006D09551D8E1090E945DD8B0D4D77F0EA8
:10031800966501D0961F90C084F091C085F092C078
:1003280086F093C087F085C087F084C086F0856B1F
:10033800846B9651020D970EF324D96E000EF420AB
:10034800DA6EDECF88F0DDCF89F0885184118A6FAC
:10035800895185118B6F000E86118C6F000E8711E5
:100368008D6F600E8E6F000E8F6FD8909435D96E9A
:100378009535DA6ED890D936DA368E51D9268F511E
:10038800DA228AC0DEFF8BC0DEFF8CC0DEFF8DC0A4
:10039800DEFF91D700000000000000000000000010
:1003A8000000000000000000000000000000000045
:1003B8000000000000000000000000000000000035
:1003C8000000000000000000000000000000000025
:1003D80000000000000012188008000033CCA97B40
:1003E8003BB480000090002400FF004B0000000395
:1003F80000000030FF00004877033F038C03BB0375
:10040800FB038F00FF03BF030000000000903003D0
:10041800002413100000CF03F391F3007C03F303CF
:10042800C303FB02CC0333481348C091F000CC143B
:10043800CC84FF00C703FF80C783BB030348FC00CD
:10044800C030CCA000B400543330D10000842E005A
:100458000300300000ABC0347B0B035700000000E2
:100468000000FFFF01000200040008002000100047
:1004780040008000000800100002008000400020BA
:100488000001000400080018001A009A00DA00FAB7
:1004980000FB00FF000000000600FACF3FF0FBCF92
:1004A80040F0E9CF41F0EACF42F0E1CF43F0E2CFAC
:1004B80044F0D9CF45F0DACF46F0F3CF47F0F4CF88
:1004C80048F0F6CF49F0F7CF4AF0F8CF4BF0F5CF28
:1004D8004CF054C04DF055C04EF056C04FF057C0C8
:1004E80050F09EA218D09E9251C001F052C002F066
:1004F80009EC00F0010E5124016E000E5220026E2C
:10050800000E046E090E036EB7EC02F001C051F044
:1005180002C052F002D09EB69E9650C057F04FC00F
:1005280056F04EC055F04DC054F04CC0F5FF4BC0CE
:10053800F8FF4AC0F7FF49C0F6FF48C0F4FF47C0BC
:10054800F3FF46C0DAFF45C0D9FF44C0E2FF43C00D
:10055800E1FF42C0EAFF41C0E9FF40C0FBFF3FC0E6
:10056800FAFF54921100000E066E02AE06D0016C1E
:10057800021ED8B0022A010E066E04AE04D0036C27
:10058800041ED8B0042A03500410D8B418D0010EA1
:10059800056E04D0D89003360436052A04AEFAD77F
:1005A8000350015C04500258D8A004D00350015EE7
:1005B8000450025AD89004320332052EF1D706505F
:1005C800D8B404D0016C021ED8B0022A01C001F0D0
:1005D80002C002F012009C0EF66E030EF76E000EBB
:1005E800F86E00EE97F011EE04F00900F5CFEEFF7B
:1005F800E550E150FAE1E250F8E1300EF66E060EF1
:10060800F76E000EF86E00EE60F010EE24F00900B0
:10061800F5CFEEFFE550E150FAE1526A516A549085
:100628005492000136EF01F0FF000300FF000300C1
:10063800FF000300FF000300FF000300FF000300AA
:0C064800FF000300FF000300FF000300A0
:020000040020DA
:08000000FFFFFFFFFFFFFFFF00
:020000040030CA
:0E000000000C1F1EFF8381FF0FC00FE00F409A
:00000001FF
