:040000000BEF00F012
:100008004482FACF30F0FBCF31F06FED01F0A8EF6A
:1000180002F00F0EC16E070EB46E000E926E000E47
:10002800936E800E946E000E956E000E966E000E06
:10003800CA6E000ECC6E7D0ECB6E7D0ECA6E9D8292
:10004800F28CF28E900EAB6E080EB86E000EB06E8B
:10005800AC94810EAF6E90C101F091C102F0036AB9
:10006800046AA8C105F0A9C106F0076A086A98C120
:1000780009F099C10AF00B6A0C6A82C10DF083C1BC
:100088000EF00F6A106A010184513E6E010185511C
:100098003F6E406A416A000E3E10116E000E3F101E
:1000A800126E010E4010136E000E4110146E9CC1AA
:1000B80015F09DC116F0176A186A8AC119F08BC12C
:1000C8001AF01B6A1C6AA8C11DF0A9C11EF01F6A9C
:1000D800206A42C121F043C122F0D5D09EAAFED7A2
:1000E8009E9AAECF62F000016251070B070AD8A4AE
:1000F800F5D762C03EF0D8903E32D8903E32D890C4
:100108003E321F0E3E163E500001606F616B9EAA84
:10011800FED79E9AAECF62F0B9D000016251020DAF
:10012800000EF324D96E010EF420DA6EDECF3EF015
:10013800DDCF3FF03EC001F03FC002F0036A046A21
:10014800CDD700016251020D000EF324D96E010EC5
:10015800F420DA6EDECF3EF0DDCF3FF03EC005F092
:100168003FC006F0076A086AB9D700016251020D5C
:10017800000EF324D96E010EF420DA6EDECF3EF0C5
:10018800DDCF3FF03EC009F03FC00AF00B6A0C6AB1
:10019800A5D700016251020D000EF324D96E010E9D
:1001A800F420DA6EDECF3EF0DDCF3FF03EC00DF03A
:1001B8003FC00EF00F6A106A91D700016251020D1C
:1001C800000EF324D96E010EF420DA6EDECF3EF075
:1001D800DDCF3FF03EC011F03FC012F0136A146A41
:1001E8007DD700016251020D000EF324D96E010E75
:1001F800F420DA6EDECF3EF0DDCF3FF03EC015F0E2
:100208003FC016F0176A186A69D700016251020DDB
:10021800000EF324D96E010EF420DA6EDECF3EF024
:10022800DDCF3FF03EC019F03FC01AF01B6A1C6AD0
:1002380055D700016251020D000EF324D96E010E4C
:10024800F420DA6EDECF3EF0DDCF3FF03EC01DF089
:100258003FC01EF01F6A206A41D700016251020D9B
:10026800000EF324D96E010EF420DA6EDECF3EF0D4
:10027800DDCF3FF03EC021F03FC022F004D08AC15C
:1002880021F08BC122F0236A246A28D760C03EF08F
:1002980061C03FF03F50000AD8A4F1D73E50070A8A
:1002A800D8B43BD70F0AD8B44CD7010AD8B45DD715
:1002B800030AD8B46ED7010AD8B47FD7070AD8B4CE
:1002C80090D7010AD8B4A1D7030AD8B4B2D7010A83
:1002D800D8B4C3D7D4D70600E9CF32F0EACF33F089
:1002E800E1CF34F0E2CF35F0D9CF36F0DACF37F0BE
:1002F800F3CF38F0F4CF39F0F6CF3AF0F7CF3BF040
:10030800F8CF3CF0F5CF3DF09EA248D09E92000E6B
:10031800256E000E266E000E276E000E286ED3EC9A
:1003280002F042C02DF0010E2E6E000E2F6E2D2A07
:1003380003D0D8902E362F362D2EFBD72EC025F081
:100348002FC026F0EFEC02F0010E2D6E000E2E6E7F
:10035800D8904234D96E4334DA6ED890D936DA362A
:100368002D50D9262E50DA22DECF25F0DECF26F00A
:10037800DECF27F0DECF28F0D3EC02F0010E4224C6
:10038800256E000E4320266E000E286E090E276E7D
:1003980070EC02F025C042F026C043F03DC0F5FFE6
:1003A8003CC0F8FF3BC0F7FF3AC0F6FF39C0F4FF86
:1003B80038C0F3FF37C0DAFF36C0D9FF35C0E2FFD7
:1003C80034C0E1FF33C0EAFF32C0E9FF31C0FBFFB0
:1003D80030C0FAFF44921100000000000000000045
:1003E8000000000000000000000000000000000005
:1003F80000000000000000000000000000000000F5
:1004080000000000000000000000000000000000E4
:100418000000000000000000000012188008000022
:1004280033CCA97B3BB480000090002400FF004B34
:100438000000000300000030FF00004877033F037E
:100448008C03BB03FB038F00FF03BF030000000006
:1004580000903003002413100000CF03F391F30041
:100468007C03F303C303FB02CC0333481348C09156
:10047800F000CC14CC84FF00C703FF80C783BB0304
:100488000348FC00C030CCA000B400543330D10085
:1004980000842E000300300000ABC0347B0B031730
:1004A800000000000000FFFF010002000400080037
:1004B80020001000400080000008001000020080AA
:1004C80000400020002000040008001800190099CE
:1004D80000D900F900FB00FF000E2A6E26AE06D0F8
:1004E800256C261ED8B0262A010E2A6E28AE04D006
:1004F800276C281ED8B0282A27502810D8B418D01E
:10050800010E296E04D0D89027362836292A28AE1D
:10051800FAD72750255C28502658D8A004D0275051
:10052800255E2850265AD89028322732292EF1D70E
:100538002A50D8B404D0256C261ED8B0262A25C047
:1005480025F026C026F01200436A426AE00EF66ED5
:10055800030EF76E000EF86E01EE00F011EE00F0DB
:100568000900F5CFEEFFE550E150FAE1E250F8E17D
:10057800060EF66E060EF76E000EF86E00EE01F02F
:1005880010EE24F00900F5CFEEFFE550E150FAE156
:1005980044904492000EF86E00010DEF00F025C063
:1005A80029F026C02AF027C02BF028C02CF0291EDD
:1005B8002A1E2B1E2C1E29C025F02AC026F02BC06F
:1005C80027F02CC028F02750010B826E26C083FF2D
:1005D80025C081FF120025C027F026C028F0D8903A
:1005E80028322732D89028322732D890283227321A
:1005F80027503F0B806E2550070B846E120000FFBA
:10060800000000FF000000FF000000FF000000FFE6
:10061800000000FF000000FF000000FF000000FFD6
:020628000000D0
:020000040020DA
:08000000FFFFFFFFFFFFFFFF00
:020000040030CA
:0E000000000C1F1FFF8381FF0FC00FE00F4099
:00000001FF
