:0400000007EF00F016
:0A000800568282ED06F070EF07F05B
:10080000004A004D414B4552204641495245205433
:100810004F4B594F20323031382048544C41424ED2
:10082000455420424F4F54482120544849532049B1
:1008300053203136205345474D454E5420392044EE
:100840004947495420444953504C4159004142437F
:10085000444546474849000001C003F0010E046EBC
:10086000000E056E032A03D0D89004360536032EF9
:10087000FBD704C03BF005C03CF0600E036E000ED9
:10088000046ED8900134D96E0234DA6ED890D9361D
:10089000DA360350D9260450DA22DECF05F0DECF57
:1008A00006F0DECF07F0DECF08F006C005F007C087
:1008B00006F008C007F0086A000E0514096E030E62
:1008C00006140A6E000E07140B6E000E08140C6E50
:1008D00055500F0B0D6E0E6A0A0ED8900D360E365F
:1008E000E82EFBD70DC00FF00EC010F0000E10BEAA
:1008F000FF0E116E126E030E3B14136E000E3C14AD
:10090000146E0E0ED89013361436E82EFBD7600EF8
:10091000156E000E166ED8900134D96E0234DA6E60
:10092000D890D936DA361550D9261650DA22000E6C
:10093000DE14176EFF0EDE14186E000EDE14196E34
:10094000000EDE141A6E19C01AF018C019F017C084
:1009500018F0176A600E1B6E000E1C6ED8900134E2
:10096000D96E0234DA6ED890D936DA361B50D926D1
:100970001C50DA22DECF1DF0DECF1EF0DECF1FF0DE
:10098000DECF20F0FF0E1D14216E000E1E14226E0D
:10099000000E1F14236E000E2014246E21C024F0BC
:1009A000236A226A216A17502110256E18502210DE
:1009B000266E19502310276E1A502410286E1350DB
:1009C0002510296E145026102A6E000E27102B6E4B
:1009D000000E28102C6E0F5029102D6E10502A106A
:1009E0002E6E11502B102F6E12502C10306E09509D
:1009F0002D10316E0A502E10326E0B502F10336EA8
:100A00000C503010346E3BC035F03CC036F0D890FE
:100A100036323532D8903632353235503110376E65
:100A20003250386E3350396E34503A6E000E3E6E8E
:100A3000000E3D6E3EBE03D03E502EE129D03D500B
:100A400037C003F038C004F039C005F03AC006F0F2
:100A5000E82A05D0D8900632053204320332E82E57
:100A6000F9D7010E0316034603468A500318FB0B01
:100A700003188A6E8A8600D000D000F08A9600D0D3
:100A800000D000F03D4A3E2A3EBED9D73E5004E198
:100A9000200E3D5CD8A0D3D78A8800D000D000F0CB
:100AA0008A9800D000D000F012000F0EC16E070E21
:100AB000B46E000E926E000E936E800E946E000E59
:100AC000956E000E966E8B908B828B948998899A86
:100AD000000ECA6E000ECC6E7D0ECB6E7D0ECA6E01
:100AE0009D82F28CF28E900EAB6E080EB86E000EE8
:100AF000B06EAC94810EAF6EF30E556E4D0E0001CC
:100B0000846F080E856FEDEC06F09EAA70D09E9A59
:100B1000AECFA4F00001A451E00BE00AD8A467D046
:100B2000A4C092F00F0E92179251A26FA36BA4C0B3
:100B300092F0923B0F0E9217010E921792519E6FF8
:100B40009F6BA06BA16B9EAAFED79E9AAECFA4F01E
:100B50000001A3BF06D0A351D8E1090EA25DD8B011
:100B6000D4D77F0EA46501D0A41F9EC092F09FC071
:100B700093F0A0C094F0A1C095F093C095F092C0FE
:100B800094F0936B926BA451020DA70EF324D96ECF
:100B9000000EF420DA6EDECF96F0DDCF97F096519E
:100BA0009211986F97519311996F000E94119A6F4B
:100BB000000E95119B6F981F991F9A1F9B1F600E27
:100BC0009C6F000E9D6FD890A235D96EA335DA6E5A
:100BD000D890D936DA369C51D9269D51DA2298C060
:100BE000DEFF99C0DEFF9AC0DEFF9BC0DEFF000182
:100BF000A505A611D8A489D7000EA66F000EA56F73
:100C000084D7000000000000000000000000000089
:100C100000000000000000000000000000000000D4
:100C200000000000000000000000000000000000C4
:100C300000000000000000000000000000000000B4
:100C40000000000012188008000033CCA97B3BB4E0
:100C500080000090002400FF004B00000003000013
:100C60000030FF00004877033F038C03BB03FB0306
:100C70008F00FF03BF03000000000090300300243A
:100C800013100000CF03F391F3007C03F303C303BD
:100C9000FB02CC0333481348C091F000CC14CC8441
:100CA000FF00C703FF80C783BB030348FC00C030BD
:100CB000CCA000B400543330D100008403003000D5
:100CC00000ABC0347B0B0357000000000000FFFFA7
:100CD0000100020004000800200010004000800015
:100CE0000008001000020080004000200001000405
:100CF00000080018001A009A00DA00FA00FB00FF52
:100D0000000000000600FACF3FF0FBCF40F0E9CF33
:100D100041F0EACF42F0E1CF43F0E2CF44F0D9CF47
:100D200045F0DACF46F0F3CF47F0F4CF48F0F6CFF6
:100D300049F0F7CF4AF0F8CF4BF0F5CF4CF056C062
:100D40004DF057C04EF058C04FF059C050F09EA221
:100D50001ED09E92000E0001A66F010EA56FB4EC8E
:100D600007F053C001F054C002F02CEC04F0010E67
:100D70005324016E000E5420026E000E046E090E04
:100D8000036E38EC07F001C053F002C054F050C0BD
:100D900059F04FC058F04EC057F04DC056F04CC0FF
:100DA000F5FF4BC0F8FF4AC0F7FF49C0F6FF48C047
:100DB000F4FF47C0F3FF46C0DAFF45C0D9FF44C087
:100DC000E2FF43C0E1FF42C0EAFF41C0E9FF40C08B
:100DD000FBFF3FC0FAFF56921100000E0001916F19
:100DE000000E906F91BF06D0915141E1090E905DC8
:100DF000D8B0120090518425866F91518521876F5C
:100E000086C0F6FF87C0F7FF0800F550020DA70E59
:100E1000F324D96E000EF420DA6EDECF88F0DDCF39
:100E200089F0010E88118A6F89518B6F8C6B8D6BE5
:100E30008A1F8B1F8C1F8D1F600E8E6F000E8F6F91
:100E4000D8909035D96E9135DA6ED890D936DA3699
:100E50008E51D9268F51DA228AC0DEFF8BC0DEFF89
:100E60008CC0DEFF8DC0DEFF904B912BBBD71200F4
:100E7000000E066E02AE06D0016C021ED8B0022A29
:100E8000010E066E04AE04D0036C041ED8B0042A12
:100E900003500410D8B418D0010E056E04D0D890B9
:100EA00003360436052A04AEFAD70350015C045019
:100EB0000258D8A004D00350015E0450025AD890C2
:100EC00004320332052EF1D70650D8B404D0016C99
:100ED000021ED8B0022A01C001F002C002F01200C6
:100EE000020EF66E0C0EF76E000EF86E00EEA7F016
:100EF00011EE02F00900F5CFEEFFE550E150FAE106
:100F0000E250F8E1440EF66E0F0EF76E000EF86E2A
:100F100000EE60F010EE24F00900F5CFEEFFE55092
:100F2000E150FAE10001A66BA56B546A536A526A5C
:100F3000516A56905692000EF86E080EF76E000138
:100F400055EF05F0FF000300FF000300FF00030062
:100F5000FF000300FF000300FF000300FF00030089
:0E0F6000FF000300FF000300514A522A120056
:020000040020DA
:08000000FFFFFFFFFFFFFFFF00
:020000040030CA
:0E000000000C1F1EFF8381FF0FC00FE00F409A
:00000001FF
