:0400000007EF00F016
:0A00080057827CED07F073EF08F05B
:1008000000520020202020202020202020202020F6
:1008100020202020202020202020202020202E20CA
:1008200020202020202020202020202020202020C8
:1008300020202020202020202020202020202020B8
:1008400020202020202020202020202020202020A8
:1008500020202020004D414B455220464149524521
:1008600020544F4B594F20323031382048544C419E
:10087000424E455420424F4F54482120544849533A
:10088000204953203136205345474D454E54203999
:1008900020444947495420444953504C4159202051
:1008A000202020202020000001C003F0010E046E53
:1008B000000E056E032A03D0D89004360536032EA9
:1008C000FBD704C03BF005C03CF0600E036E000E89
:1008D000046ED8900134D96E0234DA6ED890D936CD
:1008E000DA360350D9260450DA22DECF05F0DECF07
:1008F00006F0DECF07F0DECF08F006C005F007C037
:1009000006F008C007F0086A000E0514096E030E11
:1009100006140A6E000E07140B6E000E08140C6EFF
:1009200056500F0B0D6E0E6A0A0ED8900D360E360D
:10093000E82EFBD70DC00FF00EC010F0000E10BE59
:10094000FF0E116E126E030E3B14136E000E3C145C
:10095000146E0E0ED89013361436E82EFBD7600EA8
:10096000156E000E166ED8900134D96E0234DA6E10
:10097000D890D936DA361550D9261650DA22000E1C
:10098000DE14176EFF0EDE14186E000EDE14196EE4
:10099000000EDE141A6E19C01AF018C019F017C034
:1009A00018F0176A600E1B6E000E1C6ED890013492
:1009B000D96E0234DA6ED890D936DA361B50D92681
:1009C0001C50DA22DECF1DF0DECF1EF0DECF1FF08E
:1009D000DECF20F0FF0E1D14216E000E1E14226EBD
:1009E000000E1F14236E000E2014246E21C024F06C
:1009F000236A226A216A17502110256E185022108E
:100A0000266E19502310276E1A502410286E13508A
:100A10002510296E145026102A6E000E27102B6EFA
:100A2000000E28102C6E0F5029102D6E10502A1019
:100A30002E6E11502B102F6E12502C10306E09504C
:100A40002D10316E0A502E10326E0B502F10336E57
:100A50000C503010346E3BC035F03CC036F0D890AE
:100A600036323532D8903632353235503110376E15
:100A70003250386E3350396E34503A6E000E3E6E3E
:100A8000000E3D6E3EBE03D03E502EE129D03D50BB
:100A900037C003F038C004F039C005F03AC006F0A2
:100AA000E82A05D0D8900632053204320332E82E07
:100AB000F9D7010E0316034603468A500318FB0BB1
:100AC00003188A6E8A8600D000D000F08A9600D083
:100AD00000D000F03D4A3E2A3EBED9D73E5004E148
:100AE000200E3D5CD8A0D3D78A8800D000D000F07B
:100AF0008A9800D000D000F0120000000000000032
:100B000000000000000000000000000000000000E5
:100B100000000000000000000000000000000000D5
:100B200000000000000000000000000000000000C5
:100B300000000000000000000000000000000000B5
:100B400000000000000000000000000000000000A5
:100B50000000000000000000000000000000000095
:100B60000000000000000000000000000000000085
:100B7000000000000000000000000000000012184B
:100B80000000800800000000000033CC0000A97BBA
:100B900000003BB400008000000000900000002432
:100BA000000000FF0000004B0000000000000003F8
:100BB00000000000000000300000FF0000000048BE
:100BC0000000770300003F0300008C030000BB031C
:100BD0000000FB0300008F000000FF030000BF03C4
:100BE0000000000000000000000000900000300342
:100BF0000000002400001310000000000000CF03DC
:100C00000000F3910000F30000007C030000F303F8
:100C10000000C3030000FB020000CC0300003348C7
:100C2000000013480000C0910000F0000000CC1448
:100C30000000CC840000FF000000C7030000FF801C
:100C40000000C7830000BB03000003480000FC0055
:100C50000000C0300000CCA0000000B40000005430
:100C6000000033300000D1000000008400000300C9
:100C700000003000000000AB0000C03400007B0B1F
:100C8000000003570000000000000000000000000A
:100C90000000FFFF0000010000000200000004004F
:100CA00000000800000020000000100000004000CC
:100CB000000080000000000800000010000000029A
:100CC0000000008000000040000000200000000143
:100CD0000000000400000008000000180000001AD6
:100CE0000000009A000000DA000000FA000000FB9B
:100CF000000000FF000000000000000000000F0ED8
:100D0000C16E070EB46E000E926E000E936E800ED2
:100D1000946E000E956E000E966E8B908B828B9467
:100D20008998899A000ECA6E000ECC6E7D0ECB6E2D
:100D30007D0ECA6E9D82F28CF28E900EAB6E080E06
:100D4000B86E000EB06EAC94810EAF6EF30E566EA0
:100D50009EAA64D09E9AAECFA8F00001A851E00BE5
:100D6000E00AD8A45BD0A8510F0BA76FA8C097F0DA
:100D7000973B0F0E9717010E97179751A36FA46B10
:100D8000A56BA66B9EAAFED79E9AAECFA8F0080EC2
:100D90000001A76501D0DCD77F0EA86501D0A81F90
:100DA000A851040DA90EF324D96E000EF420DA6EBA
:100DB000DECF97F0DECF98F0DECF99F0DECF9AF05D
:100DC000A3C09BF0A4C09CF0A5C09DF0A6C09EF05F
:100DD0009CC09EF09BC09DF09C6B9B6B97519B11A0
:100DE0009F6F98519C11A06F99519D11A16F9A51BD
:100DF0009E11A26F9F1FA01FA11FA21FA751040D2C
:100E0000600EF324D96E000EF420DA6E9FC0DEFF70
:100E1000A0C0DEFFA1C0DEFFA2C0DEFF000184058E
:100E2000D8A496D7000E846F93D7000E166E000ECE
:100E3000156E16BE06D016505EE1090E155CD8B0D0
:100E4000120015500124D96E16500220DA6EDF50C0
:100E5000056E0550040DA90EF324D96E000EF42082
:100E6000DA6EDECF06F0DECF07F0DECF08F0DECFA1
:100E700009F015500324D96E16500420DA6E2E0E98
:100E8000DE18D8A402D0010E01D0000E0B6E0C6A41
:100E90000D6A0E6A0CC00EF00BC00DF00C6A0B6AE6
:100EA00006500B100F6E07500C10106E08500D10EE
:100EB000116E09500E10126E0F1E101E111E121E02
:100EC000600E136E000E146ED8901534D96E163461
:100ED000DA6ED890D936DA361350D9261450DA2281
:100EE0000FC0DEFF10C0DEFF11C0DEFF12C0DEFF4C
:100EF000154A162A9ED712000600FACF3FF0FBCF04
:100F000040F0E9CF41F0EACF42F0E1CF43F0E2CF49
:100F100044F0D9CF45F0DACF46F0F3CF47F0F4CF25
:100F200048F0F6CF49F0F7CF4AF0F8CF4BF0F5CFC5
:100F30004CF057C04DF058C04EF059C04FF05AC059
:100F400050F09EA219D09E92010E0001846FE2EC37
:100F500007F055C001F0026A54EC04F0010E55246C
:100F6000016E026A000E0222000E046E090E036E6C
:100F70003BEC08F00150556E50C05AF04FC059F08C
:100F80004EC058F04DC057F04CC0F5FF4BC0F8FFB5
:100F90004AC0F7FF49C0F6FF48C0F4FF47C0F3FF5F
:100FA00046C0DAFF45C0D9FF44C0E2FF43C0E1FFBD
:100FB00042C0EAFF41C0E9FF40C0FBFF3FC0FAFF6B
:100FC00057921100534A542AF50E531853E1540412
:100FD000D8A41200000E546E000E536E5150176EBE
:100FE0005250186E514A522AF70E196EFF0E1A6EA1
:100FF000010EF66E0900F5CF1BF00900F5CF1CF0CD
:1010000019501B261A501C2217501B1808E11850A3
:101010001C18D8A404D0000E526E000E516E8E0E15
:10102000016E000E026E550E5124036E080E522002
:10103000046E000E066E090E056EA9EC08F0850E12
:10104000016E000E026E030E5124036E080E522034
:10105000046E000E066E090E056EA9EC08F08E0EE9
:10106000016E000E026E850E036E000E046E15EC0E
:1010700007F012001200000E066E02AE06D0016CE0
:10108000021ED8B0022A010E066E04AE04D0036C14
:10109000041ED8B0042A03500410D8B418D0010E8E
:1010A000056E04D0D89003360436052A04AEFAD76C
:1010B0000350015C04500258D8A004D00350015ED4
:1010C0000450025AD89004320332052EF1D706504C
:1010D000D8B404D0016C021ED8B0022A01C001F0BD
:1010E00002C002F01200FA0EF66E0A0EF76E000E43
:1010F000F86E00EEA9F012EE04F00900F5CFEEFF55
:10110000E550E150FAE1E250F8E1B20EF66E110E50
:10111000F76E000EF86E00EE60F010EE24F009009D
:10112000F5CFEEFFE550E150FAE100EE84F0130E4A
:10113000EE6AE806FDE1556A546A536A526A516ADA
:1011400057905792000EF86E080EF76E00017FEF71
:1011500006F001C007F002C008F015D00506D8A0BF
:10116000060603C0F6FF04C0F7FF034A042A07C0BF
:10117000D9FF08C0DAFF074A082A0800F5CFDFFFC9
:10118000DF50D8B40DD005500610D8B409D0E6D73A
:1011900007C0D9FF08C0DAFF000EDF6E074A082A31
:1011A0000506D8A006060528F3E10628D8B41200E3
:1011B000EFD7FF000300FF000300FF000300FF0064
:1011C0000300FF000300FF000300FF000300FF0017
:0611D0000300FF00030014
:020000040020DA
:08000000FFFFFFFFFFFFFFFF00
:020000040030CA
:0E000000000C1F1EFF8381FF0FC00FE00F409A
:00000001FF
